{"address":"0x6115631191b07C82160F4481d93a39EB23E23471","bytecode":"0x608060405234801561001057600080fd5b5061001961001e565b6100d0565b7ff0c57e16840df040f15088dc2f81fe391c3923bec73e23a9662efc9c229c6a00805468010000000000000000900460ff161561006e5760405163f92ee8a960e01b815260040160405180910390fd5b80546001600160401b03908116146100cd5780546001600160401b0319166001600160401b0390811782556040519081527fc7f505b2f371ae2175ee4913f4499e1f2633a7b5936321eed1cdaeb6115181d29060200160405180910390a15b50565b61251080620000e06000396000f3fe608060405234801561001057600080fd5b50600436106102325760003560e01c80638b763a4211610130578063be9a6555116100b8578063dd62ed3e1161007c578063dd62ed3e146104c9578063eb4af045146104dc578063f1887684146104ef578063f2fde38b146104f8578063f4daaba11461050b57600080fd5b8063be9a655514610475578063c8987bc81461047d578063dac3fc3f14610490578063db0ed6a0146104a3578063dcc2a55e146104b657600080fd5b8063a438f000116100ff578063a438f0001461042c578063a9059cbb1461043f578063b2b4416714610452578063b69ef8a81461045a578063b6b55f251461046257600080fd5b80638b763a42146103ba5780638da5cb5b146103cd57806395d89b41146104115780639d1a35bd1461041957600080fd5b8063501ec738116101be5780636c359a86116101825780636c359a861461037b57806370a082311461038457806370adb51514610397578063715018a6146103aa5780638456cb59146103b257600080fd5b8063501ec738146102ea5780635284689614610334578063576f35e3146103475780635c975abb1461035a5780635d80ca321461037257600080fd5b806318160ddd1161020557806318160ddd1461029657806323b872dd146102ab5780632e1a7d4d146102be578063313ce567146102d35780633f4ba83a146102e257600080fd5b806306fdde0314610237578063095ea7b3146102555780630bf6cc08146102785780630f027c671461028e575b600080fd5b61023f610514565b60405161024c9190611fbd565b60405180910390f35b610268610263366004612023565b6105d7565b604051901515815260200161024c565b6102806105f1565b60405190815260200161024c565b610280610663565b60008051602061249b83398151915254610280565b6102686102b936600461204d565b61066f565b6102d16102cc366004612089565b610693565b005b6040516012815260200161024c565b6102d16106e6565b60005460015460025461030a926001600160a01b03908116928116911683565b604080516001600160a01b039485168152928416602084015292169181019190915260600161024c565b6102d16103423660046120a2565b610700565b6102d1610355366004612089565b610762565b6000805160206124bb8339815191525460ff16610268565b61028060045481565b610280600a5481565b6102806103923660046120a2565b61076f565b6102d16103a53660046120bd565b610797565b6102d1610806565b6102d1610818565b6102d16103c8366004612023565b610830565b7f9016d09d72d40fdae2fd8ceac6b6234c7706214fd39c1cd1e609a0528c199300546001600160a01b03165b6040516001600160a01b03909116815260200161024c565b61023f610897565b6103f9610427366004612089565b6108d6565b6102d161043a36600461204d565b610900565b61026861044d366004612023565b61093d565b6102d161094b565b610280610ab4565b6102d1610470366004612089565b610b33565b6102d1610b4c565b6102d161048b366004612023565b610be6565b61028061049e3660046120a2565b610c1b565b6102d16104b1366004612193565b610c7c565b6102d16104c4366004612089565b610e69565b6102806104d7366004612229565b610e76565b6102d16104ea366004612089565b610ec0565b61028060055481565b6102d16105063660046120a2565b610ecd565b61028060095481565b7f52c63247e1f47db19d5ce0460030c497f067ca4cebf71ba98eeadabe20bace03805460609160008051602061247b833981519152916105539061225c565b80601f016020809104026020016040519081016040528092919081815260200182805461057f9061225c565b80156105cc5780601f106105a1576101008083540402835291602001916105cc565b820191906000526020600020905b8154815290600101906020018083116105af57829003601f168201915b505050505091505090565b6000336105e5818585610f0d565b60019150505b92915050565b6002546040516370a0823160e01b81523060048201526000916001600160a01b0316906370a0823190602401602060405180830381865afa15801561063a573d6000803e3d6000fd5b505050506040513d601f19601f8201168201806040525081019061065e9190612296565b905090565b600061065e6007610f1f565b60003361067d858285610f29565b610688858585610f89565b506001949350505050565b61069b610fe8565b6106a3611032565b6106ab611063565b80156106ba576106ba816112ef565b6106e360017f9b779b17422d0df92223018b32b4d1fa46e071723d6817e2486d003becc55f0055565b50565b6106ee6114db565b6106f6611536565b6106fe611566565b565b6107086114db565b610710611536565b600380546001810182556000919091527fc2575a0e9e593c00f959f8c92f12db2869c3395a3b0502d05e2516446f71f85b0180546001600160a01b0319166001600160a01b0392909216919091179055565b61076a6114db565b600955565b6001600160a01b0316600090815260008051602061247b833981519152602052604090205490565b61079f6114db565b60405163767ac36960e01b815260048101839052602481018290526001600160a01b0384169063767ac369906044015b600060405180830381600087803b1580156107e957600080fd5b505af11580156107fd573d6000803e3d6000fd5b50505050505050565b61080e6114db565b6106fe60006115c6565b6108206114db565b610828611032565b6106fe611637565b6108386114db565b604051630b1cfc9b60e11b8152600481018290526001600160a01b03831690631639f936906024015b600060405180830381600087803b15801561087b57600080fd5b505af115801561088f573d6000803e3d6000fd5b505050505050565b7f52c63247e1f47db19d5ce0460030c497f067ca4cebf71ba98eeadabe20bace04805460609160008051602061247b833981519152916105539061225c565b600381815481106108e657600080fd5b6000918252602090912001546001600160a01b0316905081565b6109086114db565b6040516378bf2b5360e01b81526001600160a01b038381166004830152602482018390528416906378bf2b53906044016107cf565b6000336105e5818585610f89565b6109536114db565b61095b611536565b600380546000919061096f906001906122c5565b8154811061097f5761097f6122d8565b60009182526020822001546006546001600160a01b0390911692506109a46007610f1f565b6109ae91906122c5565b9050600060095482106109c3576009546109c5565b815b6006549091505b816006546109da91906122ee565b811015610a7d5760006109f1610392600784611680565b90508015610a74576001600160a01b03851663adc9772e610a13600785611680565b6040516001600160e01b031960e084901b1681526001600160a01b03909116600482015260248101849052604401600060405180830381600087803b158015610a5b57600080fd5b505af1158015610a6f573d6000803e3d6000fd5b505050505b506001016109cc565b508060066000828254610a9091906122ee565b90915550506009548210610aa657600654610aae565b600060068190555b50505050565b6001546040516370a0823160e01b81523060048201526000916001600160a01b0316906370a0823190602401602060405180830381865afa158015610afd573d6000803e3d6000fd5b505050506040513d601f19601f82011682018060405250810190610b219190612296565b610b296105f1565b61065e91906122ee565b610b3b610fe8565b610b43611032565b6106ba816112ef565b610b546114db565b610b5c611536565b6003805460009190610b70906001906122c5565b81548110610b8057610b806122d8565b60009182526020822001546040805163be9a655560e01b815290516001600160a01b039092169350839263be9a65559260048084019382900301818387803b158015610bcb57600080fd5b505af1158015610bdf573d6000803e3d6000fd5b5050505050565b610bee6114db565b604051630aaeeaf760e11b8152600481018290526001600160a01b0383169063155dd5ee90602401610861565b600080610c3460008051602061249b8339815191525490565b1115610c6f5760008051602061249b83398151915254610c538361076f565b610c5b610ab4565b610c659190612301565b6105eb9190612318565b506000919050565b919050565b7ff0c57e16840df040f15088dc2f81fe391c3923bec73e23a9662efc9c229c6a008054600160401b810460ff16159067ffffffffffffffff16600081158015610cc25750825b905060008267ffffffffffffffff166001148015610cdf5750303b155b905081158015610ced575080155b15610d0b5760405163f92ee8a960e01b815260040160405180910390fd5b845467ffffffffffffffff191660011785558315610d3557845460ff60401b1916600160401b1785555b610d3f8a8a611693565b610d48866116a9565b33600080546001600160a01b03199081166001600160a01b03938416179091556001805482168b841690811790915560028054909216928a1692831790915560405163095ea7b360e01b81526004810191909152600019602482015263095ea7b3906044016020604051808303816000875af1158015610dcc573d6000803e3d6000fd5b505050506040513d601f19601f82011682018060405250810190610df0919061233a565b50683635c9adc5dea0000060055569d3c21bcecceda10000006004556101f46009556002600a558315610e5d57845460ff60401b19168555604051600181527fc7f505b2f371ae2175ee4913f4499e1f2633a7b5936321eed1cdaeb6115181d29060200160405180910390a15b50505050505050505050565b610e716114db565b600455565b6001600160a01b0391821660009081527f52c63247e1f47db19d5ce0460030c497f067ca4cebf71ba98eeadabe20bace016020908152604080832093909416825291909152205490565b610ec86114db565b600555565b610ed56114db565b6001600160a01b038116610f0457604051631e4fbdf760e01b8152600060048201526024015b60405180910390fd5b6106e3816115c6565b610f1a83838360016116ba565b505050565b60006105eb825490565b6000610f358484610e76565b90506000198114610aae5781811015610f7a57604051637dc7a0d960e11b81526001600160a01b03841660048201526024810182905260448101839052606401610efb565b610aae848484840360006116ba565b6001600160a01b038316610fb357604051634b637e8f60e11b815260006004820152602401610efb565b6001600160a01b038216610fdd5760405163ec442f0560e01b815260006004820152602401610efb565b610f1a8383836117a1565b7f9b779b17422d0df92223018b32b4d1fa46e071723d6817e2486d003becc55f0080546001190161102c57604051633ee5aeb560e01b815260040160405180910390fd5b60029055565b6000805160206124bb8339815191525460ff16156106fe5760405163d93c066560e01b815260040160405180910390fd5b61106b6118df565b60006110763361076f565b9050600061109060008051602061249b8339815191525490565b82611099610ab4565b6110a39190612301565b6110ad9190612318565b905081156110d8576110c66110c13361076f565b6119f6565b6110d8336110d33361076f565b611b5c565b6002546040516370a0823160e01b81523060048201526000916001600160a01b0316906370a0823190602401602060405180830381865afa158015611121573d6000803e3d6000fd5b505050506040513d601f19601f820116820180604052508101906111459190612296565b90508181101561125257600061115b82846122c5565b6001546040516305c2fbcf60e31b8152600481018390529192506001600160a01b031690632e17de7890602401600060405180830381600087803b1580156111a257600080fd5b505af11580156111b6573d6000803e3d6000fd5b50506002546040516370a0823160e01b8152306004820152600093506001600160a01b0390911691506370a0823190602401602060405180830381865afa158015611205573d6000803e3d6000fd5b505050506040513d601f19601f820116820180604052508101906112299190612296565b9050600061123784836122c5565b90508281101561124e5761124b81856122ee565b94505b5050505b6002546001600160a01b031663a9059cbb336040516001600160e01b031960e084901b1681526001600160a01b039091166004820152602481018590526044016020604051808303816000875af11580156112b1573d6000803e3d6000fd5b505050506040513d601f19601f820116820180604052508101906112d5919061233a565b506112df3361076f565b600003610f1a57610f1a33611b92565b60006112fa33610c1b565b61130490836122ee565b9050600454811061131457600080fd5b61131c6118df565b6000611326610ab4565b6002549091506001600160a01b03166323b872dd336040516001600160e01b031960e084901b1681526001600160a01b039091166004820152306024820152604481018690526064016020604051808303816000875af115801561138e573d6000803e3d6000fd5b505050506040513d601f19601f820116820180604052508101906113b2919061233a565b5060006113bd6105f1565b111561142d576001546001600160a01b031663a694fc3a6113dc6105f1565b6040518263ffffffff1660e01b81526004016113fa91815260200190565b600060405180830381600087803b15801561141457600080fd5b505af1158015611428573d6000803e3d6000fd5b505050505b6000611437610ab4565b905061144382826122c5565b9350600061145d60008051602061249b8339815191525490565b60000361146b575083611499565b8261148260008051602061249b8339815191525490565b61148c9087612301565b6114969190612318565b90505b6000811180156114ab57506005548410155b15610bdf576114ba3382611bad565b6114c381611be3565b6114ce600733611d49565b610bdf57610bdf33611d6b565b3361150d7f9016d09d72d40fdae2fd8ceac6b6234c7706214fd39c1cd1e609a0528c199300546001600160a01b031690565b6001600160a01b0316146106fe5760405163118cdaa760e01b8152336004820152602401610efb565b6000805160206124bb8339815191525460ff166106fe57604051638dfc202b60e01b815260040160405180910390fd5b61156e611536565b6000805160206124bb833981519152805460ff191681557f5db9ee0a495bf2e6ff9c91a7834c1ba4fdd244a5e8aa4e537bd38aeae4b073aa335b6040516001600160a01b03909116815260200160405180910390a150565b7f9016d09d72d40fdae2fd8ceac6b6234c7706214fd39c1cd1e609a0528c19930080546001600160a01b031981166001600160a01b03848116918217845560405192169182907f8be0079c531659141344cd1fd0a4f28419497f9722a3daafe3b4186f6b6457e090600090a3505050565b61163f611032565b6000805160206124bb833981519152805460ff191660011781557f62e78cea01bee320cd4e420270b5ea74000d11b0c9f74754ebdbfc544b05a258336115a8565b600061168c8383611d85565b9392505050565b61169b611daf565b6116a58282611df8565b5050565b6116b1611daf565b6106e381611e49565b60008051602061247b8339815191526001600160a01b0385166116f35760405163e602df0560e01b815260006004820152602401610efb565b6001600160a01b03841661171d57604051634a1406b160e11b815260006004820152602401610efb565b6001600160a01b03808616600090815260018301602090815260408083209388168352929052208390558115610bdf57836001600160a01b0316856001600160a01b03167f8c5be1e5ebec7d5bd14f71427d1e84f3dd0314c0f7b2291e5b200ac8c7c3b9258560405161179291815260200190565b60405180910390a35050505050565b60008051602061247b8339815191526001600160a01b0384166117dd57818160020160008282546117d291906122ee565b9091555061184f9050565b6001600160a01b038416600090815260208290526040902054828110156118305760405163391434e360e21b81526001600160a01b03861660048201526024810182905260448101849052606401610efb565b6001600160a01b03851660009081526020839052604090209083900390555b6001600160a01b03831661186d57600281018054839003905561188c565b6001600160a01b03831660009081526020829052604090208054830190555b826001600160a01b0316846001600160a01b03167fddf252ad1be2c89b69c2b068fc378daa952ba7f163c4a11628f55a4df523b3ef846040516118d191815260200190565b60405180910390a350505050565b6001546040516246613160e11b81523060048201526000916001600160a01b031690628cc26290602401602060405180830381865afa158015611926573d6000803e3d6000fd5b505050506040513d601f19601f8201168201806040525081019061194a9190612296565b905080156106e35760015460408051631e8c5c8960e11b815290516001600160a01b0390921691633d18b9129160048082019260009290919082900301818387803b15801561199857600080fd5b505af11580156119ac573d6000803e3d6000fd5b505060015460405163534a7e1d60e11b8152600481018590526001600160a01b03909116925063a694fc3a9150602401600060405180830381600087803b158015610bcb57600080fd5b60005b6003548110156116a557600060038281548110611a1857611a186122d8565b600091825260208220015460408051635178644360e01b815290516001600160a01b039092169350839263517864439260048084019382900301818387803b158015611a6357600080fd5b505af1158015611a77573d6000803e3d6000fd5b50505050806001600160a01b031663d478790c6040518163ffffffff1660e01b8152600401602060405180830381865afa158015611ab9573d6000803e3d6000fd5b505050506040513d601f19601f82011682018060405250810190611add919061233a565b15611b53576001600160a01b03811663c2a672e0336040516001600160e01b031960e084901b1681526001600160a01b03909116600482015260248101869052604401600060405180830381600087803b158015611b3a57600080fd5b505af1158015611b4e573d6000803e3d6000fd5b505050505b506001016119f9565b6001600160a01b038216611b8657604051634b637e8f60e11b815260006004820152602401610efb565b6116a5826000836117a1565b611b9d600782611d49565b156106e3576116a5600782611e51565b6001600160a01b038216611bd75760405163ec442f0560e01b815260006004820152602401610efb565b6116a5600083836117a1565b60005b6003548110156116a557600060038281548110611c0557611c056122d8565b600091825260208220015460408051635178644360e01b815290516001600160a01b039092169350839263517864439260048084019382900301818387803b158015611c5057600080fd5b505af1158015611c64573d6000803e3d6000fd5b50505050806001600160a01b031663d478790c6040518163ffffffff1660e01b8152600401602060405180830381865afa158015611ca6573d6000803e3d6000fd5b505050506040513d601f19601f82011682018060405250810190611cca919061233a565b15611d40576001600160a01b03811663adc9772e336040516001600160e01b031960e084901b1681526001600160a01b03909116600482015260248101869052604401600060405180830381600087803b158015611d2757600080fd5b505af1158015611d3b573d6000803e3d6000fd5b505050505b50600101611be6565b6001600160a01b0381166000908152600183016020526040812054151561168c565b611d76600782611d49565b6106e3576116a5600782611e66565b6000826000018281548110611d9c57611d9c6122d8565b9060005260206000200154905092915050565b7ff0c57e16840df040f15088dc2f81fe391c3923bec73e23a9662efc9c229c6a0054600160401b900460ff166106fe57604051631afcd79f60e31b815260040160405180910390fd5b611e00611daf565b60008051602061247b8339815191527f52c63247e1f47db19d5ce0460030c497f067ca4cebf71ba98eeadabe20bace03611e3a84826123a4565b5060048101610aae83826123a4565b610ed5611daf565b600061168c836001600160a01b038416611e7b565b600061168c836001600160a01b038416611f6e565b60008181526001830160205260408120548015611f64576000611e9f6001836122c5565b8554909150600090611eb3906001906122c5565b9050808214611f18576000866000018281548110611ed357611ed36122d8565b9060005260206000200154905080876000018481548110611ef657611ef66122d8565b6000918252602080832090910192909255918252600188019052604090208390555b8554869080611f2957611f29612464565b6001900381819060005260206000200160009055905585600101600086815260200190815260200160002060009055600193505050506105eb565b60009150506105eb565b6000818152600183016020526040812054611fb5575081546001818101845560008481526020808220909301849055845484825282860190935260409020919091556105eb565b5060006105eb565b60006020808352835180602085015260005b81811015611feb57858101830151858201604001528201611fcf565b506000604082860101526040601f19601f8301168501019250505092915050565b80356001600160a01b0381168114610c7757600080fd5b6000806040838503121561203657600080fd5b61203f8361200c565b946020939093013593505050565b60008060006060848603121561206257600080fd5b61206b8461200c565b92506120796020850161200c565b9150604084013590509250925092565b60006020828403121561209b57600080fd5b5035919050565b6000602082840312156120b457600080fd5b61168c8261200c565b6000806000606084860312156120d257600080fd5b6120db8461200c565b95602085013595506040909401359392505050565b634e487b7160e01b600052604160045260246000fd5b600082601f83011261211757600080fd5b813567ffffffffffffffff80821115612132576121326120f0565b604051601f8301601f19908116603f0116810190828211818310171561215a5761215a6120f0565b8160405283815286602085880101111561217357600080fd5b836020870160208301376000602085830101528094505050505092915050565b600080600080600060a086880312156121ab57600080fd5b853567ffffffffffffffff808211156121c357600080fd5b6121cf89838a01612106565b965060208801359150808211156121e557600080fd5b506121f288828901612106565b9450506122016040870161200c565b925061220f6060870161200c565b915061221d6080870161200c565b90509295509295909350565b6000806040838503121561223c57600080fd5b6122458361200c565b91506122536020840161200c565b90509250929050565b600181811c9082168061227057607f821691505b60208210810361229057634e487b7160e01b600052602260045260246000fd5b50919050565b6000602082840312156122a857600080fd5b5051919050565b634e487b7160e01b600052601160045260246000fd5b818103818111156105eb576105eb6122af565b634e487b7160e01b600052603260045260246000fd5b808201808211156105eb576105eb6122af565b80820281158282048414176105eb576105eb6122af565b60008261233557634e487b7160e01b600052601260045260246000fd5b500490565b60006020828403121561234c57600080fd5b8151801515811461168c57600080fd5b601f821115610f1a576000816000526020600020601f850160051c810160208610156123855750805b601f850160051c820191505b8181101561088f57828155600101612391565b815167ffffffffffffffff8111156123be576123be6120f0565b6123d2816123cc845461225c565b8461235c565b602080601f83116001811461240757600084156123ef5750858301515b600019600386901b1c1916600185901b17855561088f565b600085815260208120601f198616915b8281101561243657888601518255948401946001909101908401612417565b50858210156124545787850151600019600388901b60f8161c191681555b5050505050600190811b01905550565b634e487b7160e01b600052603160045260246000fdfe52c63247e1f47db19d5ce0460030c497f067ca4cebf71ba98eeadabe20bace0052c63247e1f47db19d5ce0460030c497f067ca4cebf71ba98eeadabe20bace02cd5ed15c6e187e77e9aee88184c21f4f2182ab5827cb3b7e07fbedcd63f03300a264697066735822122042638fb6aa0358afbfb3a15cd7a491a8a82cbfd5809e4a486f1369185af28b7b64736f6c63430008170033","abi":[{"inputs":[],"stateMutability":"nonpayable","type":"constructor"},{"inputs":[{"internalType":"address","name":"spender","type":"address"},{"internalType":"uint256","name":"allowance","type":"uint256"},{"internalType":"uint256","name":"needed","type":"uint256"}],"name":"ERC20InsufficientAllowance","type":"error"},{"inputs":[{"internalType":"address","name":"sender","type":"address"},{"internalType":"uint256","name":"balance","type":"uint256"},{"internalType":"uint256","name":"needed","type":"uint256"}],"name":"ERC20InsufficientBalance","type":"error"},{"inputs":[{"internalType":"address","name":"approver","type":"address"}],"name":"ERC20InvalidApprover","type":"error"},{"inputs":[{"internalType":"address","name":"receiver","type":"address"}],"name":"ERC20InvalidReceiver","type":"error"},{"inputs":[{"internalType":"address","name":"sender","type":"address"}],"name":"ERC20InvalidSender","type":"error"},{"inputs":[{"internalType":"address","name":"spender","type":"address"}],"name":"ERC20InvalidSpender","type":"error"},{"inputs":[],"name":"EnforcedPause","type":"error"},{"inputs":[],"name":"ExpectedPause","type":"error"},{"inputs":[],"name":"InvalidInitialization","type":"error"},{"inputs":[],"name":"NotInitializing","type":"error"},{"inputs":[{"internalType":"address","name":"owner","type":"address"}],"name":"OwnableInvalidOwner","type":"error"},{"inputs":[{"internalType":"address","name":"account","type":"address"}],"name":"OwnableUnauthorizedAccount","type":"error"},{"inputs":[],"name":"ReentrancyGuardReentrantCall","type":"error"},{"anonymous":false,"inputs":[{"indexed":true,"internalType":"address","name":"owner","type":"address"},{"indexed":true,"internalType":"address","name":"spender","type":"address"},{"indexed":false,"internalType":"uint256","name":"value","type":"uint256"}],"name":"Approval","type":"event"},{"anonymous":false,"inputs":[{"indexed":false,"internalType":"uint64","name":"version","type":"uint64"}],"name":"Initialized","type":"event"},{"anonymous":false,"inputs":[{"indexed":true,"internalType":"address","name":"previousOwner","type":"address"},{"indexed":true,"internalType":"address","name":"newOwner","type":"address"}],"name":"OwnershipTransferred","type":"event"},{"anonymous":false,"inputs":[{"indexed":false,"internalType":"address","name":"account","type":"address"}],"name":"Paused","type":"event"},{"anonymous":false,"inputs":[{"indexed":true,"internalType":"address","name":"from","type":"address"},{"indexed":true,"internalType":"address","name":"to","type":"address"},{"indexed":false,"internalType":"uint256","name":"value","type":"uint256"}],"name":"Transfer","type":"event"},{"anonymous":false,"inputs":[{"indexed":false,"internalType":"address","name":"account","type":"address"}],"name":"Unpaused","type":"event"},{"inputs":[{"internalType":"uint256","name":"","type":"uint256"}],"name":"IGOs","outputs":[{"internalType":"address","name":"","type":"address"}],"stateMutability":"view","type":"function"},{"inputs":[{"internalType":"address","name":"owner","type":"address"},{"internalType":"address","name":"spender","type":"address"}],"name":"allowance","outputs":[{"internalType":"uint256","name":"","type":"uint256"}],"stateMutability":"view","type":"function"},{"inputs":[{"internalType":"address","name":"spender","type":"address"},{"internalType":"uint256","name":"value","type":"uint256"}],"name":"approve","outputs":[{"internalType":"bool","name":"","type":"bool"}],"stateMutability":"nonpayable","type":"function"},{"inputs":[],"name":"balance","outputs":[{"internalType":"uint256","name":"","type":"uint256"}],"stateMutability":"view","type":"function"},{"inputs":[{"internalType":"address","name":"account","type":"address"}],"name":"balanceOf","outputs":[{"internalType":"uint256","name":"","type":"uint256"}],"stateMutability":"view","type":"function"},{"inputs":[],"name":"batchSize","outputs":[{"internalType":"uint256","name":"","type":"uint256"}],"stateMutability":"view","type":"function"},{"inputs":[{"internalType":"address","name":"_igo","type":"address"}],"name":"createIGO","outputs":[],"stateMutability":"nonpayable","type":"function"},{"inputs":[],"name":"decimals","outputs":[{"internalType":"uint8","name":"","type":"uint8"}],"stateMutability":"view","type":"function"},{"inputs":[{"internalType":"uint256","name":"_amount","type":"uint256"}],"name":"deposit","outputs":[],"stateMutability":"nonpayable","type":"function"},{"inputs":[{"internalType":"address","name":"account","type":"address"}],"name":"getUserStaked","outputs":[{"internalType":"uint256","name":"","type":"uint256"}],"stateMutability":"view","type":"function"},{"inputs":[{"internalType":"string","name":"_shareName","type":"string"},{"internalType":"string","name":"_shareSymbol","type":"string"},{"internalType":"address","name":"_pool","type":"address"},{"internalType":"address","name":"_tokenSpin","type":"address"},{"internalType":"address","name":"initialOwner","type":"address"}],"name":"initialize","outputs":[],"stateMutability":"nonpayable","type":"function"},{"inputs":[],"name":"maxStakeAmount","outputs":[{"internalType":"uint256","name":"","type":"uint256"}],"stateMutability":"view","type":"function"},{"inputs":[],"name":"membersLength","outputs":[{"internalType":"uint256","name":"","type":"uint256"}],"stateMutability":"view","type":"function"},{"inputs":[],"name":"migrateBalances","outputs":[],"stateMutability":"nonpayable","type":"function"},{"inputs":[],"name":"minStakeAmount","outputs":[{"internalType":"uint256","name":"","type":"uint256"}],"stateMutability":"view","type":"function"},{"inputs":[],"name":"name","outputs":[{"internalType":"string","name":"","type":"string"}],"stateMutability":"view","type":"function"},{"inputs":[],"name":"newVar","outputs":[{"internalType":"uint256","name":"","type":"uint256"}],"stateMutability":"view","type":"function"},{"inputs":[{"internalType":"address","name":"_igo","type":"address"},{"internalType":"uint256","name":"_percentage","type":"uint256"}],"name":"notifyVesting","outputs":[],"stateMutability":"nonpayable","type":"function"},{"inputs":[],"name":"owner","outputs":[{"internalType":"address","name":"","type":"address"}],"stateMutability":"view","type":"function"},{"inputs":[],"name":"pause","outputs":[],"stateMutability":"nonpayable","type":"function"},{"inputs":[],"name":"paused","outputs":[{"internalType":"bool","name":"","type":"bool"}],"stateMutability":"view","type":"function"},{"inputs":[],"name":"renounceOwnership","outputs":[],"stateMutability":"nonpayable","type":"function"},{"inputs":[{"internalType":"uint256","name":"_batchSize","type":"uint256"}],"name":"setBatchSize","outputs":[],"stateMutability":"nonpayable","type":"function"},{"inputs":[{"internalType":"uint256","name":"_maxStakeAmount","type":"uint256"}],"name":"setMaxStakeAmount","outputs":[],"stateMutability":"nonpayable","type":"function"},{"inputs":[{"internalType":"uint256","name":"_minStakeAmount","type":"uint256"}],"name":"setMinStakeAmount","outputs":[],"stateMutability":"nonpayable","type":"function"},{"inputs":[{"internalType":"address","name":"_igo","type":"address"},{"internalType":"uint256","name":"_allocationTime","type":"uint256"},{"internalType":"uint256","name":"_publicTime","type":"uint256"}],"name":"setPeriods","outputs":[],"stateMutability":"nonpayable","type":"function"},{"inputs":[{"internalType":"address","name":"_igo","type":"address"},{"internalType":"address","name":"_token","type":"address"},{"internalType":"uint256","name":"_decimal","type":"uint256"}],"name":"setToken","outputs":[],"stateMutability":"nonpayable","type":"function"},{"inputs":[],"name":"start","outputs":[],"stateMutability":"nonpayable","type":"function"},{"inputs":[],"name":"symbol","outputs":[{"internalType":"string","name":"","type":"string"}],"stateMutability":"view","type":"function"},{"inputs":[],"name":"totalSupply","outputs":[{"internalType":"uint256","name":"","type":"uint256"}],"stateMutability":"view","type":"function"},{"inputs":[{"internalType":"address","name":"to","type":"address"},{"internalType":"uint256","name":"value","type":"uint256"}],"name":"transfer","outputs":[{"internalType":"bool","name":"","type":"bool"}],"stateMutability":"nonpayable","type":"function"},{"inputs":[{"internalType":"address","name":"from","type":"address"},{"internalType":"address","name":"to","type":"address"},{"internalType":"uint256","name":"value","type":"uint256"}],"name":"transferFrom","outputs":[{"internalType":"bool","name":"","type":"bool"}],"stateMutability":"nonpayable","type":"function"},{"inputs":[{"internalType":"address","name":"newOwner","type":"address"}],"name":"transferOwnership","outputs":[],"stateMutability":"nonpayable","type":"function"},{"inputs":[],"name":"unpause","outputs":[],"stateMutability":"nonpayable","type":"function"},{"inputs":[],"name":"vaultBalance","outputs":[{"internalType":"uint256","name":"","type":"uint256"}],"stateMutability":"view","type":"function"},{"inputs":[],"name":"vaultInfo","outputs":[{"internalType":"address","name":"admin","type":"address"},{"internalType":"address","name":"pool","type":"address"},{"internalType":"address","name":"tokenSpin","type":"address"}],"stateMutability":"view","type":"function"},{"inputs":[{"internalType":"uint256","name":"restakeAmount","type":"uint256"}],"name":"withdraw","outputs":[],"stateMutability":"nonpayable","type":"function"},{"inputs":[{"internalType":"address","name":"_igo","type":"address"},{"internalType":"uint256","name":"token","type":"uint256"}],"name":"withdrawIGOFunds","outputs":[],"stateMutability":"nonpayable","type":"function"}]}